:020000040100F9
:10000000F0FF0720E12F060145B506014DB50601B9
:100010005DB5060165B506016DB50601000000007D
:10002000000000000000000000000000978E0101A9
:1000300055B5060100000000978E0101F56106012B
:1000400035730601978E010185230601978E010104
:10005000978E0101978E0101978E0101978E010104
:10006000978E0101218D0501978E0101978E010167
:100070005DD40501978E0101978E0101AD8D0501BB
:10008000978E0101694C0501978E01011D4D0501F7
:10009000978E0101978E0101978E0101978E0101C4
:1000A000978E0101978E0101000000000000000002
:1000B000978E010135A40601978E0101F9570601BB
:1000C000978E0101978E0101978E0101978E010194
:1000D000978E0101978E0101978E0101978E010184
:1000E000978E0101978E0101978E0101978E010174
:1000F000978E0101978E0101978E0101978E010164
:10010000978E0101978E0101978E0101978E010153
:10011000978E0101978E0101978E0101978E010143
:10012000978E0101398E0501978E0101978E01018D
:10013000978E0101978E0101978E0101978E010123
:10014000978E0101978E0101978E0101978E010113
:10015000978E0101978E0101978E0101978E010103
:10016000978E0101978E0101978E0101000000001A
:10017000978E0101978E0101978E0101978E0101E3
:10018000978E0101978E0101978E0101978E0101D3
:10019000978E0101978E0101978E0101F1DD050116
:1001A00049490401978E0101978E0101000000006A
:1001B0000000000000000000978E0101978E0101F1
:1001C000F8B500BFF8BC08BC9E467047DD56060176
:1001D000F8B500BFF8BC08BC9E467047B95606018A
:1001E00034E402000100000080B400AF034B5B78F0
:1001F0005BB21846BD465DF8047B7047E8460020B8
:1002000018AF0820155500001955000019550000B9
:100210001955000019550000195500000000000094
:100220000000000000000000000000001955000060
:100230001955000000000000195500001955000074
:1002400019550000195500001955000019550000F6
:1002500019550000195500001955000019550000E6
:1002600019550000195500001955000019550000D6
:1002700019550000195500001955000019550000C6
:1002800019550000B546000019550000BB46000096
:1002900019550000C146000019550000195500000D
:1002A0001955000019550000195500001955000096
:1002B0003B54000019550000195500001955000065
:1002C0001955000019550000195500001955000076
:1002D0001955000019550000195500001955000066
:1002E0001955000019550000195500001955000056
:1002F0001955000019550000195500001955000046
:100300001955000019550000195500001955000035
:100310001955000019550000195500001955000025
:100320001955000019550000195500001955000015
:100330001955000019550000195500001955000005
:1003400019550000195500001955000019550000F5
:1003500019550000195500001955000019550000E5
:100360001955000019550000195500000000000043
:1003700019550000D12A0000195500001955000038
:1003800019550000195500001955000019550000B5
:1003900019550000C7460000195500001955000006
:1003A0003F5400000B4E0000D94D0000000000003B
:1003B0001955000019550000195500001955000085
:1003C00000000000DFF800F01DA10820012200F06D
:1003D0001F017A4B03E0012200F01F01784B8A4095
:1003E000400943F8202070472DE9F0474FF4E471AD
:1003F000744A48431518D5E92023002B02D55242F0
:1004000063EB430305F5C8746F48D0F800A0D4E946
:100410000068700940EAC860301848EB58119942EA
:100420000FD828BF90420CD2206A022809D0D4E904
:100430000665AAFB06010AFB051102F0A9FB0025CF
:1004400038E0D4E906797809002199420FD828BF0D
:1004500090420CD25D4D2A69A2FB070102FB0911F3
:100460003246434602F094FB0126266223E0D5E99A
:100470001C01002908BF002809D0D4E90663AA6F2F
:10048000A2FB060102FB0311D5E91C230FE0D4E90E
:100490000665002B08BF002A05D14D4AA2FB0601C4
:1004A00002FB051105E0AAFB06010AFB051102F09B
:1004B0006FFB0225256200290CBF0028C4E90A0150
:1004C000BDE8F0872DE9F04F4FF4E4743D49444313
:1004D000214400258D67C1E91C55D1E92067AF4251
:1004E00001F5CC744FF001080BDB01DC464508D365
:1004F000D4E900ABD4E90467BAEB06066BEB070757
:1005000007E0D4E90089D4E9046718EB060649EB53
:100510000707C4E9006701244FF080752D4ECC67B2
:1005200085402D4C356004EB80070FF24005BC6917
:1005300055F82060294F2A4D3E6005EB4015A4B2C6
:100540006A6002EB0416EE60544263EB4305C1E9B6
:100550001A451E4A234B012142F8201003EB80006C
:10056000416E491C4166BDE8F08F000001000000AB
:10057000020000000400000038B514481A4B0021A6
:10058000C160002217494A601A6802F07F6202F0D7
:100590007C64B4F1406F0CBF144B154B01244C60CC
:1005A0004FF4217585614B65124C0C60426102F07D
:1005B0001DFC08494FF48010086031BD80E100E067
:1005C00080E200E028A108205CA9082094AA082065
:1005D00000408058004001480080082008C00148C1
:1005E00000C201480081082000020540006E3F80E3
:1005F000006E7F80000303002DE9F84FB4B003E0E4
:100600004BF69A10FFF7DEFEDFF864180868002842
:10061000F6D001F18400426CDFF86C0E42615A2082
:1006200002F063FC02F008FDDFF8601E0020886421
:1006300003F0CCFBDFF83C180220486000220020C9
:10064000DFF83418002302F03DFA0428FBD3002021
:10065000DFF828181C9141F82020DFF8241802F058
:1006600031FA0728F4D300200021DFF818283023BE
:100670004343401CD1540428F9D3DFF80C084FF44D
:10068000216103F03FFCDFF8041818200022E1E8A4
:100690000222401EFBD1DFF8DC1704204860002452
:1006A00003F098FCDFF8E817DFF8C827012008718D
:1006B0000620506002F048FDDFF8D41708700020D3
:1006C00000234FF4E472DFF8CC174243114401F5E4
:1006D000DA71401C03280B70CC600B61F1DB4FF426
:1006E000D961DFF8B40703F00DFCDFF88407016877
:1006F0000129FCD9DFF87C17DFF8A027DFF88C4D43
:10070000072048601192DFF89817DFF89827DFF884
:100710007C0717910A920590DFF88C17DFF88C2779
:1007200009910892DFF88817DFF88827069101926F
:10073000DFF884170091DFF838170868002802F006
:100740004081DFF8442DDFF84837DFF8240700F157
:10075000840104910846C16B00290BD40025156162
:100760009561049D686CDFF80C575061E86820F0D3
:100770007060E8600498456C05F16045B5F5002FA0
:1007800006D2DFF8F006C56825F08055C56006E0A2
:10079000DFF8E016C86840F08050C8600021587843
:1007A0000028D2D00392D1611A46079300215170DC
:1007B000DFF80817086838B1DFF80407DFF8FC36FF
:1007C0000121016000221A60DFF8F026DFF8F01640
:1007D000506828B10222DFF8E4360A600020586031
:1007E000DFF8D826906828B104220A600020DFF8DC
:1007F000CC16886041F2D0552068DFF87416169048
:100800008868002825D500202646DFF864168A6807
:10081000441CC240D10714D5DFF86C2602EB8000DF
:100820004719706E604320F0004003F06DFDF867DB
:10083000706E604300F1604020F0004003F064FD02
:10084000386020461F28E0D33446616E206E411880
:1008500061660021A162A06A1699001D01F00401E1
:10086000401A0E900020E062E76ADFF81C0600EBF9
:10087000870501460E98DFF8F835C0EBC000381840
:1008800001EB800141F28842885803EB8701D1F8DF
:100890008820DFF8EC15029101EBC70850FB12F637
:1008A000D8E90023B600121801EBC70143EBE0734F
:1008B000C1E900230399DFF8D82BC9690A40B2F1D6
:1008C000004F07D14FF4807303FA07F7394218BF7E
:1008D00003F03DFADFF8EC05DFF8E82501682B6846
:1008E00056FB11F0516853FB11009168EA69DFF87B
:1008F000D8352E6062FB1100DFF8CC15DFF8C86533
:100900000A68800050FB12F15A68EB6953FB121120
:10091000DFF8B4259368AA6B52FB1311DFF8A835F2
:10092000DA682B6F63FB121205F18C0133690F68D3
:1009300067FB132292006A65EA69E861AA6305F120
:100940005402E36ADFF884050290C65C06F00306F1
:100950001C20464352F806C02A6F0A60686D28675B
:10096000E36A6668DE40F70720D5DFF81C0500EB78
:10097000430241F2F0331A444FEA6C07B2F90030F7
:100980004E6D1B0466FB13704000761050FB136322
:10099000B2F910600F6F5B0036045B1067FB163214
:1009A00052007F1052FB167C4FEA4C0C48650A67D8
:1009B00005F58C70DFF81815D0F81CA04A68D1F83E
:1009C00000800D92164686FB0C235209D5F818E1DB
:1009D00042EAC3625B1188FB0A01101A63EB010152
:1009E000DFF8F0345E680C96C00F1A680B9240EA8C
:1009F0004100C1171646A6FB0023F71706FB01337B
:100A00000C9E07FB0033C6FB0E2388FB0C894FEAC4
:100A1000581646EAC96856460D9F4FEA691BC246FA
:100A2000C7FB06ABCDE912AB0C9EDDF82CB0A6FBE4
:100A30000089F71706FB019907FB00998BFB0EABAA
:100A4000B8EB0A0069EB0B0BC00F40EA4B00C5F88E
:100A50001801D20F05F58C7042EA430205F58C713E
:100A6000C261886BDFF870245168D2F800E08EFB19
:100A70000C23520981FB0C6742EAC36276095B11C1
:100A800046EAC766C1FB00237F118EFB0089B6EBE7
:100A9000080067EB0901C00F40EA410005F58C71C1
:100AA0008863DDE91201861A039ADFF8E40961EB35
:100AB0000307D169DFF824240840F60E904246EA85
:100AC000471608D1E06A4FF48073834019421CBF77
:100AD000304603F03CF907988178012902D1079943
:100AE0000020C87005F5D277A068E16AC840C00749
:100AF00038D505F58C7CDFF8E8E3DFF8E413DEF8A1
:100B000004800868DCF85410DCF870C080FB062311
:100B100088FB01018009920940EA816042EA836210
:100B200089111018DEF8082041EBA31182FB0C2379
:100B3000920942EA83628018D7F800C0DEF80C20E0
:100B400041EBA31182FB0C23801AD7F81CC0DEF8FE
:100B50001020994182FB0C23801A9941800F40EAB2
:100B6000810000E0304605F58C714A6D0A674E65DC
:100B700005F50C763968F96138604010A16A0329DF
:100B800053D8DFE801F0021B021BD649BA6B096893
:100B900062FB11004000B863521050FB1121D24893
:100BA0007A6D00684900491062FB1011490052102B
:100BB00051FB102040003867796536E0CB49326838
:100BC000096862FB110040003060521050FB112197
:100BD000C748F26900684900491062FB10114900DA
:100BE0005210F16151FB1020396F4000401000EBB2
:100BF0006100B0630299E26A8B5CC3F380021C213E
:100C00004A43A918DFF88838D1F8688270650399DB
:100C1000CA69B84913408B4207D1E16A4FF4807723
:100C20008F403A4218BF03F092F8A06A012805F5F8
:100C30002F7105F575774FEA680802D0032819D09F
:100C400091E0A848326F006862FB10835B0052108D
:100C5000336753FB1022A4480B68006852005210FF
:100C600063FB102252005B1052FB10304000C86141
:100C70000A6078E09D488A6B006862FB10835B0025
:100C800052108B6353FB102299484B6D0068520041
:100C9000521063FB102252005B104A6552FB103069
:100CA000CA694000401000EB62000867E26A0298DF
:100CB000835CDB081C204343E818D0F82C233A60FF
:100CC00005F55270436D826B03674265C369026824
:100CD0008363C261096FDFF8B82701600398C169B7
:100CE00085480A40824208D1E06A4FF4807383400D
:100CF00019421CBF386803F02AF85D488168002952
:100D000031D5E06A5A494A6800F11803DA40D10740
:100D100029D40021564A9368CB40DA0720D55A4B94
:100D200003EB810541F2D0522A44D36F3D68564E01
:100D30009B1255FB13F37C2505FB00FCB4440CEB24
:100D40008105D5F8106A9B19C5F8103A12683B68FE
:100D5000D5F8746D921253FB12F29219C5F8742DE6
:100D6000491C1F29D6D300980168F961E06A401C2C
:100D70000728E062FFF478ADA06A401C0428A06256
:100D8000FFF469AD4D49C868002840F071830098B0
:100D900000990068364FC861009A51681162009B43
:100DA0009A685A62009A009BD2689A62009C2369F2
:100DB000E362009D6C692C63009EB56975634F4DBD
:100DC000FF6854FB15F6760075006D4207F0706EF3
:100DD000BEF1807F07F0004C26D0BEF1007F2FD0FF
:100DE000BEF1407F00F08C80BEF1806F00F0A280E9
:100DF000BEF1A06F00F0ED80BEF1C06F00F0AD80DD
:100E0000BEF1E06F00F0B480BEF1006F00F0B8807A
:100E1000BEF1106F18BFBEF1206F00F0BE80BEF1B2
:100E2000306F00F0C080D9E0BCF1004FFBD10098DA
:100E300089190162921900998A6200980563CDE0D0
:100E4000FF0E07F00607104800EB870101F57670EA
:100E5000002202600099CB684A685B1003EB6203D2
:100E60004A6903EB62035B005B42C361B6E000BF0B
:100E70000080082000810820209E0820849F0820F0
:100E8000409E0820609D0820108A0820A09C082011
:100E9000F09D082028A1082020940820789E082092
:100EA000AC9D08209C910820E8930820348F0820EE
:100EB000209D0820689B0820E48D082094AA082023
:100EC00004C001480056000074550000F89D082039
:100ED00020560000185600002856000040000080F0
:100EE00088550000485600004C560000405600004F
:100EF000445600003000008010000080555555D544
:100F0000009C4010E0614442009FBCF1004F7C62B5
:100F100064D1009F89193962921900998A62A0EB05
:100F20006300009A1563A4EB63030099C8610098FD
:100F3000436253E0BCF1004F4BD162186FF00205E1
:100F4000009E92FBF5F289183162A41800998A621A
:100F50001818009A146340423EE00098491001625C
:100F60000022009882624942009A1163002033E017
:100F700000990020886200990863009948620FE098
:100F8000009A0021916240100099C86100220099E6
:100F90004A624042009AD06220E000990020086333
:100FA0000099C8621AE0BCF1004F12D1009C8A1966
:100FB0002262711A009A9162401000990D63A0EBB1
:100FC00063020099CA614042009AA0EB630050623C
:100FD00004E0009900208862009948620021DFF84F
:100FE000AC040290C162DFF8A01403910299DFF80B
:100FF000F40ECA6ADFF8F03EDFF8F07EDFF8ECCEE0
:10100000DCF810E0DFF8E8CE00EB820404F57C7534
:10101000DFF8D40E2A68016852FB11F05968EA69BA
:1010200052FB11009A68A96BDB6851FB1201686DD5
:1010300060FB1312DFF8B03E296F1E6961FB1626B4
:10104000DFF8A82E1368B60056FB13F27B6850FB3E
:101050001322BB68FF6851FB132304F27C410A682A
:1010600062FB1733CF6928676E6567FB1E33DFF8B5
:10107000800E06689B0053FB16F0DCF8046052FB00
:101080001600DCF80860DCF80CC057FB1606886B0D
:1010900060FB1C67DFF858CE4E6DDCF810E0DFF81F
:1010A000F0CECA610B6066FB1E77DFF8E42EDFF836
:1010B000E0EE1368DEF81080DFF8D8EEBF0057FBD3
:1010C00013F2DCF8043050FB1322DCF80830DCF8B3
:1010D0000CC056FB13230A6F04F5A16662FB1C3C8F
:1010E000336848658F6363FB18CCDFF8A80E076888
:1010F0004FEA8C0C5CFB17F0DEF8087053FB17000E
:10110000DEF80C70B36B63FB1700DEF81030776D00
:10111000326067FB13000001F061C1F870C00399F1
:10112000DB4AC969DFF8703E0A409A4208D1029A48
:10113000D36A4FF480779F40394218BF02F007FE10
:1011400004F29451DFF8542EF769086813684FEAE7
:10115000A70E1A4660FB12E20C935200401052FB9D
:101160001300336F0B6032678000DFF8343E8A6B08
:101170001B680B93801062FB13004000521050FB61
:101180001322CB698B63C8619200DFF8180E0B6FD6
:101190000068D21063FB102252005B1052FB103C1F
:1011A0004B6D0B674A6504F5C463DFF8FC1DDA6913
:1011B00009684FEACC0C4FEA2C1C62FB11CC4FEAB9
:1011C0004C0C52105CFB112E1A68DA61C3F800C097
:1011D0004FEA0E1EDFF8D42DD3F854C012684FEA40
:1011E0002E1E6CFB12E84FEA48084FEA6C0C58FBC5
:1011F00012CED3F838C0C3F854C04FEA0E1EC3F85D
:10120000388004F2AC6CC3F870E0DFF8A43DD6F887
:101210003890DCF81C801B68DCF800B0CCF81CB0FF
:101220004FEAA90A68FB13AA4FEA4A0A4FEA68087C
:10123000CCF800A0B7635AFB1388C6F854904FEA65
:101240008808DFF8706DDCF8547036684FEAE808FB
:1012500067FB16884FEA48087F1058FB1679DCF8C0
:101260003870CCF83880CCF8547004F5E768DFF8B3
:10127000847ED8F800A03F684FEAC9094FEA2919CF
:101280006AFB179B4FEA4B0B4FEA6A0A5BFB17A9F5
:10129000DCF870A0C8F800A0CCF870B04FEA0919CB
:1012A000DFF854CED8F838A0DCF800C0D8F81CB06D
:1012B000C8F838B04FEA29196AFB1C994FEA490966
:1012C000C8F81C904FEA6A0A59FB1CAADFF82C9E4A
:1012D0004FEA0A1A5EFB19FE5AFB19E94FEA49095F
:1012E000C8F85490DFF8189E5AFB19EE4FEA4E0EDC
:1012F000C8F870E004F2C47ED5F80080DEF81C90D7
:10130000DDF830B04FEAA80A69FB1BAA4FEA4A0A87
:101310004FEA69095AFB1B99DEF800B0CEF81CB001
:10132000CEF800A04FEA8909DEF854A0DDF82CB011
:101330004FEAA9096AFB1B994FEA49094FEA6A0A71
:1013400059FB1BABDEF838A0CEF83890CEF854A08D
:1013500004F505694FEA8B0BD9F800A04FEAEB0BB7
:101360006AFB10BB4FEA4B0B4FEA6A0A5BFB10A00B
:10137000DEF870A0C9F800A0CEF870B0C000D9F8AF
:1013800038E000116EFB110040004FEA6E0E50FB7A
:1013900011E1D9F81CE0C9F81C00C9F838E00901CE
:1013A000D9F87000091160FB121E4FEA4E0E401072
:1013B0005EFB120004F6DC0100010860D9F854203D
:1013C000C9F854E0C9F87020EA69D1F838E04FEA6A
:1013D000A2096EFB13994FEA49094FEA6E0E59FBB9
:1013E00013E3D1F81CE0C1F838E0C1F81C90AA63FF
:1013F000C5F81C809B000A6F4D6D0D67DB1062FB0A
:1014000016335B004B65521004F6681153FB16222D
:10141000CB690D68CD61D200121163FB1722520017
:101420005B100A6052FB17334A6D8D6B4D651B01D3
:101430001B1162FB1C335B008B63521053FB1C229D
:10144000DFF8B83C120150FB13F052FB13035B00B2
:101450000B67DFF8AC1C52FB11004000C4F8F40924
:1014600002980299C06A401C0728C862FFF4BEAD0A
:101470000798064C8178012941F07281DFF8840CCD
:10148000DFF8842C06E000BFD8A00820789F082051
:1014900070000080C0680292012300281D9340F074
:1014A0004D85DFF8680C416848030CD5DFF8602CE7
:1014B000002191640020D0641065DFF8501C48685A
:1014C00020F480204860DFF8440C4168880312D57E
:1014D000DFF83C2C00215163002011460022886374
:1014E00008460021C26341640164DFF8202C506883
:1014F00020F400305060DFF81C0C03900146059A80
:10150000D1E91E01C2E90001019B059DD3E91067E5
:10151000CDE92867DDE92823C5E90C23039A059B5B
:10152000D2E90067C3E91867019A059DD2E904234F
:10153000C5E90623019E059DD6E91689CDE92689D0
:10154000DDE92667C5E91267039E059DD6E90A898C
:10155000C5E91E89029E069DD6E90089C5E9048970
:10156000029E069DD6E90889C5E90A89019E059D66
:10157000D6E90067C5E90267019DD5E91289CDE981
:101580002489DDE924AB059DC5E90EAB039DD5E9B2
:101590000289059DC5E91A89019DD5E90689CDE92C
:1015A0001289DDE912AB059DC5E908AB019DD5E9BE
:1015B0001889CDE92289DDE922AB059DC5E914AB87
:1015C000039DD5E90C89069DC5E90089029DD5E9F1
:1015D0000289069DC5E90689029DD5E90A89069D0D
:1015E000C5E90C89019DD5E90289CDE91889DDE9B4
:1015F00018AB059DC5E904AB019DD5E91489CDE97A
:101600002089DDE920AB059DC5E910AB039DD5E937
:101610000489059DC5E91C89019DD5E90889059DB9
:10162000C5E90A89019DD5E91AABCDE91EAB059D37
:10163000C5E916AB039DD5E90EAB069DC5E902AB26
:10164000029DD5E904AB069DC5E908AB029DD5E92D
:101650000CAB069DC5E90EABDDF800E0DEF82050CE
:10166000DDF800E01095DEF81C501595AE46109D93
:1016700085FB0EAB4FEA9A4545EA8B354019039D31
:1016800041EBAB41C5E91E01089D6D680F95089DB2
:10169000D5F800E0CDF86CE07546DDF83CE08EFB57
:1016A00005AB4FEA9A4545EA8B35521943EBAB43FC
:1016B000CDE93223DDE932AB019AC2E904AB009BEC
:1016C0009A6A009B019D0E925A6A149213460E9AD2
:1016D00082FB03AB4FEA9A4242EA8B32B61847EBE1
:1016E000AB47CDE93067DDE93023C5E90023089A2F
:1016F000D368089A0D930D9E9568DDE9122301F0D9
:10170000D8F9CDE92E23DDE92E67019A1A95C2E9B1
:101710000667009B1A6B009B0C920C9EDD6ADDE94C
:10172000182301F0C6F9CDE92C23DDE92C67019AD5
:101730001395C2E90267089B5A69089B019D0B92A9
:101740001A69199213460B9A82FB036701F0A4F9F8
:1017500018EB060249EBA749CDE92A29DDE92A233E
:10176000C5E90823E36B009CDFF8782702EBC30C84
:10177000636B019C1293D4E90A23129CDCF8F453A6
:1017800085FB046701F088F9019C01F097F9C4E931
:101790000A23089B9C69019B1894D3E90C45189A6D
:1017A000DCF8283583FB026701F076F9019AA41969
:1017B00045EBA745C2E90C45099C2568246ADDE98B
:1017C000282301F06DF9CDE92829DDE92845019E9E
:1017D000C6E910450A9C2568246ADDE9262301F044
:1017E0005FF9CDE92629DDE92645019EC6E91645C2
:1017F000099CA568A66ADDE9242301F04BF992193A
:1018000043EBA749CDE92429DDE92445019EC6E93A
:1018100012450A9CA568A66ADDE9222301F03AF97F
:10182000019C01F04BF9C4E91823099E3769D6F8E9
:1018300030E0DDE920458EFB07894FEA984646EA0D
:101840008936A419019E45EBA945C6E91445DDF882
:1018500028E0DEF81080DEF83090DDE91E6789FBB5
:1018600008894FEA984848EA8938DDF804E016EB21
:10187000080647EBA947CEE91A67DDF80480DDF8D2
:1018800024E0DEF818E0D8E91CABDCF8F88988FB26
:101890000E894FEA984848EA8938DDF804E01AEBE7
:1018A00008084BEBA949CEE91C89DDF804A0DDF856
:1018B00028E0DCF8ACC7DEF818E0DAE91E898CFB1A
:1018C0000EAB4FEA9A4A4AEA8B3ADDF804E0DFF8B9
:1018D0003CC818EB0A0849EBAB49CEE91E89DCF895
:1018E00044E05FEACE2C1FD5DFF820E80EF1840833
:1018F000CDF81080C646DEF86480DDF80CC0B0EB91
:10190000080061EBE871CCE91E01DDE93289DDF800
:1019100010C0DCF86400DDF804C0C117B8EB0000AB
:1019200069EB0101CCE90401DFF8E007416CC80371
:1019300021D5DFF8D81701F184000490DDE928896A
:101940008446DCF87000DDF804C0C117B8EB000075
:1019500069EB0101CCE91001DDE92689DDF810C051
:10196000DCF87000DDF804C0C117B8EB000069EBCB
:101970000101CCE91601DFF89407416C880221D5FA
:10198000DFF8881701F184000490DDE9308984468E
:10199000DCF86800DDF804C0C117B8EB000069EBA3
:1019A0000101CCE90001DDE92E89DDF810C0DCF889
:1019B0006800DDF804C0C117B8EB000069EB010155
:1019C000CCE90601DFF84407416C88031DD5DFF838
:1019D0003C1701F184000490DDE924898446DCF899
:1019E0007400DDF804C0C117B8EB000069EB010119
:1019F000CCE91201DDF810E0DEF87400C117101A0E
:101A0000019A63EB0101C2E91801DFF80007416C9C
:101A100048021BD5DFF8F416DDE92C8901F18402B8
:101A20000492D06E019AC117B8EB000069EB010176
:101A3000C2E90201DDE92A89049AD06E019AC11730
:101A4000B8EB000069EB0101C2E90801DFF8BC0650
:101A5000416C480316D5DFF8B41601F18402134631
:101A60000492986F019AC117201A65EB0101C2E92F
:101A70001401049B986F019AC117301A67EB01019A
:101A8000C2E91A0103981599D0E90023084680FBA2
:101A90000145A40C44EA85340399121943EBA5438C
:101AA000C1E900230398D0E902231498014681FB81
:101AB0000045A40C44EA85340398121943EBA5436E
:101AC000C0E9022303991398D1E90423014681FB5D
:101AD0000045A40C44EA85340398121943EBA5434E
:101AE000C0E904231599DFF82406DFF82026C46E28
:101AF0001498536F83FB0023C4FB01231398DFF872
:101B00000C46E56FC5FB0023100E40EA03200100E0
:101B100048BF4942DFF8F845656CA94238BF2946FD
:101B2000616480FB00670399B60AD1E9064546EA7D
:101B30008756A01945EB9729C1E906090399129820
:101B4000D1E90845014681FB0067B60C46EA8736B5
:101B50000398A41945EBA745C0E90845049D129CCC
:101B6000286880FB0401801A9941039A000E40EA1C
:101B70000120D2E9104580FB0001800A40EA815033
:101B8000261845EB9127C2E910670398D0E90A238C
:101B90001B98014681FB0045A40C44EA8534039858
:101BA000121943EBA543C0E90A2303991A98D1E916
:101BB0000C23014681FB0045A40C44EA85340398BC
:101BC000121943EBA543C0E90C2303991998D1E9F5
:101BD0000E23014681FB0045A40C44EA853403989A
:101BE000DFF82815121943EBA543C0E90E23486816
:101BF000010504D503980022C0E912220FE00398E2
:101C0000D0E912231898014681FB0045A40C44EA50
:101C100085340398121943EBA543C0E912230298B7
:101C20001099D0E90023084680FB0145A40C44EA42
:101C300085340299121943EBA543C1E900230298A8
:101C4000D0E902230E98014681FB0045A40C44EA2A
:101C500085340298121943EBA543C0E90223109979
:101C60000E98081A029980FB0045D1E91023A40CB4
:101C700044EA8534161943EBA547C1E91067029978
:101C80000C98D1E90423014681FB0045A40C44EAE9
:101C900085340298121943EBA543C0E904230E9939
:101CA0000C98081A029980FB0045D1E91223A40C74
:101CB00044EA8534161943EBA547C1E912670C992C
:101CC0001098081A029980FB0045D1E91423A40C4E
:101CD00044EA8534161943EBA547C1E91467029914
:101CE0000F98D1E90823014681FB0045A40C44EA82
:101CF00085340298121943EBA543C0E908230299E1
:101D00000D98D1E90A23014681FB0045A40C44EA61
:101D100085340298121943EBA543C0E90A230F99B1
:101D20000D98081A029980FB0045D1E91623A40CEE
:101D300044EA8534161943EBA547C1E916670299B1
:101D40000B98D1E90C23014681FB0045A40C44EA21
:101D500085340298121943EBA543C0E90C230D9971
:101D60000B98081A029980FB0045D1E91823A40CAE
:101D700044EA8534161943EBA547C1E918670B9966
:101D80000F98081A029980FB0045D1E91A23A40C88
:101D900044EA8534161943EBA547C1E91A670024C4
:101DA000DFF8D87C786C401C78644E4800EBC405A2
:101DB00005F5A56108688A6B4A49302363430B44E3
:101DC00041F25036002A1E4410DD00286FDCF86B0B
:101DD000844208BF01F0FAFF3078012869D101215F
:101DE0007170B0707168491C716062E05FD5002845
:101DF0005DD402237370C117B3700903821A41EADC
:101E000010510003D31700F0A1FED7F844C0B36807
:101E1000F360024640423061C2EB0C32BC4BB26010
:101E200003F1780040F82420307801281AD1706836
:101E3000401C70607169B068A0EB010C70680028EC
:101E400018BFBCF1000F11D080464FF0504207235D
:101E5000A2FB080103FB08116246002300F098FE74
:101E6000F06103E001203070B068706100231D98BC
:101E700000FA04F805F59050D0E900017A6C00F002
:101E800087FE000C40EA0140082806D30121316298
:101E90009F48816848EA010805E0002030629C49BB
:101EA000886820EA08089A49C1F8088001E0002003
:101EB0007070D5F8F403002848BF4042944901F1FE
:101EC000480252F82430984238BF184642F824009D
:101ED000641C032CFFF469AF0022DFF8040CDFF868
:101EE000043C07E0108A08209C550000B055000013
:101EF000C455000050F8320003EBC20403EBC203E8
:101F0000D4E90067361847EBE077C3E9006700289B
:101F100048BF4042032A03D17C494B68190509D4C4
:101F20007B4B03EB820403EB8201656BA84238BF55
:101F300028464863521C042ACFD300E080471199F9
:101F4000DFF8A40BDFF8344B0390D1E90623416896
:101F500012EB4150169A43EBE121C2F38A0240F2A0
:101F6000FF739A4211D1626BA36B694851FB123225
:101F700002630020039DAB6882FB0323120A42EA3E
:101F80000362EB689A1800212263119A5D4E13E0F8
:101F9000D8550000EC55000020000080505600008D
:101FA0005856000060560000685600007056000049
:101FB000545600005C560000C2E90601F068002893
:101FC00040F0D98351490A79E06B02F03002102ABF
:101FD00015D0202A0CD0302A0FD01699BD290FD346
:101FE0000698016E01290AD017984168012901D18C
:101FF000012005E0416B012901D1022000E0002011
:102000004349E0638A6822F0180242EAC0028A600B
:10201000169ABD2A0FD33022DFF8D01A3C4D424326
:102020008B58EB610699CA6D2A6217990A686A6231
:1020300017990A6BAA623021DFF8B47A4843385CFA
:1020400028B9606C31494A699042C0F09A8330489F
:1020500002690169521C090C92B242EA0141016114
:102060004FF00008A2463021DFF8880A01FB08F192
:10207000014441F2683201EB0209DAF84400D9F870
:102080000010A0EB010CDAF84410C9F80010D9E9EF
:102090000423029800EBC804D4E90045C9E90445CB
:1020A000A01A65EB03016246002300F071FD174A98
:1020B00002EB8804000A256E40EA0160012308F162
:1020C0001801854203FA01F103D3114882681143D4
:1020D00026E008F11C0203FA02F20C4B03F154044F
:1020E00054F82850A8420A4816D381680A438260EF
:1020F00017E000BF645600006C5600009A79825ABF
:1021000066867DA594AA0820F09B08200080082000
:1021100000810820E89A0820836823EA010191439E
:10212000816008F10108B8F1030F9CD3DFF8C819EA
:102130002020544608603020E16B41437A5C022A3B
:1021400006D0606CDFF8B42953699842C0F0198357
:10215000DFF8A009084441F2583108440268406899
:10216000121A02920299090B652903D20298000BF8
:10217000392804D2616CA06C091A09030291616CC0
:10218000A06C091A2165DFF87809616CA16420212F
:1021900000EB810252F8043C40F82130491E00292E
:1021A000F6DC034602994FF4E8604143090B2246EE
:1021B00019600020D064D16C53F82040401C611895
:1021C0002028D164F7DB1031490931611446DFF86A
:1021D0002C094168C80202D501F08CF803E0002008
:1021E0006065A065E0650025DFF814A94FF4E47B85
:1021F000DFF8080900F1180151F82520002A40F104
:102200002D8100F11803294653F8250001F018F933
:10221000DFF8F0080BFB05F10144DFF8E008D1E935
:10222000182312F5007643F10007B60A46EA8756EE
:10223000DFF8D428BF12A2FB068902FB0799B8F188
:10224000604200F1180669F1FF33920F56F825003D
:1022500042EA83029B1700F47020B0F5803F18BF5C
:10226000002808D1DFF89468776C002F03D5B446B6
:10227000DCF848600EE0B0F5403F18BFB0F5003F15
:102280000BD1DFF87868776C3E0106D5DFF86CC8B3
:10229000DCF84C60921B63EBE673564263EB43073A
:1022A000B0F5803F18BF00281FD1DFF850C8DCF818
:1022B00004E05FEA4E2C18D5002B5CBF16461F4683
:1022C000DFF83808D0F834800020874207DC01DBD3
:1022D000464504D200F0D9FB46F480164AE0DFF808
:1022E0002C68B06820F480104BE0B0F5403F18BF78
:1022F000B0F5003F1FD1DFF804C8DCF804E05FEA66
:102300008E2C18D5002B5CBF16461F46DFF8EC0755
:10231000D0F838800020874207DC01DB464504D234
:1023200000F0B3FB46F4002624E0DFF8E067B06875
:1023300020F4002025E0B0F5E02F18BFB0F5C02F45
:1023400020D1DFF8B807D0F804C05FEA0C2019D517
:10235000002B5CBF16461F46DFF8A007D0F8408070
:102360000020874208DC01DB464505D200F08DFBEA
:1023700046F40006866005E0DFF89067B06820F458
:102380000000B060DFF8740700F1180656F82570F9
:1023900078010DD4DFF8786706F5C87000EBC50E3C
:1023A00000EBC500DEE90067B6185F41C0E90067D1
:1023B00001F5C4704FF0200CD0E90467C0E906674E
:1023C000D0E9048918EB020649EB0309C0E9046966
:1023D00001EBCC0606F1780EACF1010CDEE90067EA
:1023E000CEE90267BCF1000FF2DCC1E92023002630
:1023F000C0E90066B44601EBCC0ED0E90023DEE96B
:10240000206792197B41C0E900230CF1010CBCF15B
:10241000200FF0DB103243F10003520942EAC3629D
:102420005B1102D5524263EB4303C0E90223D1E9B9
:102430002023002B02D5524263EB4303D1E91C67F2
:10244000B2187B41C1E91C23DAF800008A6FDFF87B
:10245000C43682188A679A4288BF8B676D1C032D29
:10246000FFF6C6AEDFF89406816800290AD5DFF8CA
:102470009C26DFF8A416D369A1FB0301000B40EAF8
:10248000015020661021DFF870060160039A116880
:10249000012906D100F058FE079908700020039A20
:1024A000106041F25431DFF85436186988B9184683
:1024B00000224368D80458BF4FF40062E56BDFF890
:1024C000343630204543581908448369D218120B1A
:1024D00001E018460269DFF81C3622643020E26B06
:1024E000194442438958206C490881423FBF606CBF
:1024F000DFF808164A699042C0F03D81606CDFF851
:10250000FC154A69904206D3DFF80006816821F085
:102510002001816005E0DFF8F415886840F02000B4
:1025200088600027DFF8E405DFF850650469DFF80C
:10253000EC55240C641C05EBC7000023D0E9000116
:10254000800840EA8170726C891000F0FFFA1C99D3
:1025500041F8270005EBC7000022C0E900227F1CDC
:10256000072FE8D341F2D80ADFF88805002500EBF1
:102570000A0BDFF8801501EBC50641F2104030442C
:10258000DFF8F824D0E90001029213465A6C0023C8
:1025900000F0DCFA41F210430746334400200021EA
:1025A000C3E90001DDF808C0DCF8442087FB078997
:1025B0004FEA984040EA89384FEA9949A2FB08015E
:1025C000D31702FB0911032D03FB081110D1DBE91E
:1025D00008238B4206D828BF824203D20020CBE9D1
:1025E00008001CE0101A63EB0101CBE9080116E0BA
:1025F00006EB0A02D2E90089894508D828BF804540
:1026000005D206EB0A010020C1E9000007E0D2E98B
:102610000023121A06EB0A008B41C0E9002306F5DD
:10262000B6700668C1696D1CF61BCF1B042D0660D1
:10263000C7619ED30799DFF8C434DFF8D0240120A6
:10264000C870DFF83804416CDFF8D404516100220F
:102650009D68DFF8D014002D09D5056841F8045BAA
:10266000521C0026B2F5D97F40F8046BF5D3DFF891
:10267000A01432200026DBE90023E1E80223EBE886
:102680000266401EF7D1DFF87014DFF880240120C5
:102690000860240414610022DFF8E01300253023D1
:1026A000DFF850045343034441F25034181983684F
:1026B0004C6CA3EB04334361CC6BA24202D113F503
:1026C000805F01DB002B00DD4561C0E90A5583789E
:1026D000856101240470012B0CBF44604560836850
:1026E000C561521C4C6CA3EB04338360032AC3689E
:1026F0004C6CA3EB0433C360D1D30C460020606460
:102700000021A1644FF4E47303FB05F6DFF8F42322
:10271000DFF8147432443E44C2E90000C6E9000107
:10272000C2E90600C2E9080100260027C2E91067D5
:10273000C2E91201C2E90A67C2E91401C2E91667D7
:102740006D1C032DE0D3119AC2E900011198C0E974
:1027500002671198C0E904110398012101600AE0A1
:1027600021688908E62906D30799DFF8A02301200C
:10277000887008205060DFF8B413C86800287DF422
:10278000DAAF00204FF4E475DFF8A4838146DFF868
:10279000741305FB00F21144D1E91A6716F5E862DB
:1027A00047F10003C1E91A234B4506DB01DC424532
:1027B00003D3DFF86023C1E91A29401C0328E6DBB4
:1027C0000027DFF8380300F1180151F8272002F044
:1027D0000242B2F1004F25D14FF4E471DFF8240337
:1027E0007943451805F5CC76307FE0B9606CA16C73
:1027F000884217D1D6E90001002902D5404261EB99
:102800004101D6E9042399420CD301D8904209D35F
:102810003846FDF7E9FDE86F002803D100F030F9F4
:1028200002203077C8E00228FCD1E86F002846D1AA
:10283000D6E90801D5E91A23821A61EB03034FF0A8
:1028400000094B4540F6816032DC01DB82422FD229
:10285000D5E9208901200021894518DB01DC80456C
:1028600015D3D6E90089D6E9040189451CDB01DCD2
:10287000804519D3012000218B4204DC01DB824218
:1028800001D2012200233846FDF71CFE17E0D6E9ED
:1028900004ABD6E90001DAF100086BEB4B0989457E
:1028A000E8DC01DB8045E5D2F26A521CF26206E008
:1028B000B16A21B100F0E4F8B06A401EB062606C09
:1028C000A16C884278D13846FDF78EFD0020B062B9
:1028D000D5E92023012000218B4232DB01DC82423A
:1028E0002FD3D6E90423D6E902AB2A20A0FB028924
:1028F00000FB0399D9450DDC01DBD0450AD26FF00E
:102900002700A0FB02894FF0FF3100FB039901FB78
:1029100002992EE0D6E90423D6E902015B0043EADE
:10292000D27352008B4247DC01DB824244D2D6E9AB
:102930000423801A9941C6E90201B56A6D1CB5628B
:10294000E8E7D6E904236FF02900D6E902ABA0FB43
:1029500002894FF0FF3100FB039901FB0299CB453F
:1029600019DC01DBC24516D22820A0FB028900FB3E
:1029700003991AEB08004BEB0901C6E9020128256F
:10298000B56219E0D6E9042382184B41C6E9022357
:10299000B06A401CB062D6E904235B0043EAD273FC
:1029A000D6E902015200D2F1000863EB4309494520
:1029B000E8DB01DC4045E5D37F1C032FBDF6BBAE51
:1029C000FFE672B6594C606900F07C60B0F1406F70
:1029D00004D14D20FDF7FAFC4D2003E05920FDF70E
:1029E000F5FC5920FDF7F7FC00E000BF514D2869C8
:1029F0008007FAD5616901F07C61B1F1406F0ED1B9
:102A00004D480168CA0103D50168CA01FCD401E040
:102A100000F05EF800F05CF84849002008605A2099
:102A2000FDF7D4FC5A20FDF7D6FC5A2000F06CFAD2
:102A300036490E20486001F066FE00F047FA33493F
:102A40000F20486002222A60284601F08FFE3020C5
:102A5000FDF7B8FC022000F0B6FAEE20FDF7B2FC5C
:102A6000606900F07C60B0F1406F04BF4B2000F063
:102A70004BFA62B635B0BDE8F08F0000789F0820B1
:102A8000012200233846FDF71DBD2048866800223C
:102A90000023704786FB0567B60C46EA8736704709
:102AA00084FB0545A40C44EA8534121943EBA5497F
:102AB000704786FB0567B60C46EA8736921943EBEA
:102AC000A743704701EBC004401CC4E900237047D2
:102AD0000168CA01FCD50168CA01FCD47047000036
:102AE000008E0820209E0820D8A008207C9D082069
:102AF000619D0820108A08200040014800800820BD
:102B00005CA9082028A10820432A01000081082090
:102B1000908108200040805827310800409E0820FE
:102B2000209408204883082038A1082094AA08206F
:102B3000014080580080014808C000480400004857
:102B400080B5FDF719FDFDF757FDFAE713F0004CCE
:102B500003D55B42524263F100039CEA210C00F072
:102B6000178010B5644603D34942404261F1000129
:102B700000F00EF8640004D34942404261F10001C4
:102B8000244203D55B42524263F1000310BD0000B2
:102B9000D3BBD9B1B2F5803F5BD2022A1ED98C4695
:102BA000B1FBF2F102FB11C31B0443EA1043B3FB78
:102BB000F2FC02FB1C3380B240EA0343B3FBF2F0A9
:102BC00002FB103240EA0C4000237047022A05D96C
:102BD0008446B0FBF2F002FB10C270474AB105D147
:102BE00000F0010249085FEA30007047002200232C
:102BF000704701F011BE0B00020000210020704759
:102C0000F7D3002200237047904271EB030CF2D3FC
:102C100070B5B1FA81F4B3FA83F52C1BA340C4F16B
:102C2000200532FA05F63343A2405FF00046E64045
:102C300002E05B085FEA3202841A71EB030524BFED
:102C4000204629467641F4D302000B0030000021D3
:102C500070BD70B5B1FA81F4B2FA82F5C4F1200406
:102C60006419B4F12006DAD3B2405FF00044F440B6
:102C7000002502E052085FEA3303C61A71EB020E28
:102C800024BF3046714664416D41F3D302000B000E
:102C90002000290070BD30B5016884684218416881
:102CA00002EB5103C90703D54C4401E0491C08D18C
:102CB0009A4218BF12F9011B01D10C3030BD12F835
:102CC000015B002904F8015BF0D4491EF7D5EFE75A
:102CD0002DE9F843674D686CA96C0840C00775D5AD
:102CE00065480168491C0160026812F0030F02D1B7
:102CF000624A012111700168D5F80080DFF88091E7
:102D000001F007011C205F4B41434FEA18204FEAB6
:102D100000285D48C9F800805C18476869685B480E
:102D200000F05EF82160A96800F05AF86160F903CC
:102D300008D400F054F8A16000F04AF8E0600020E8
:102D4000206107E00022A260E26000F048F8216103
:102D500000F03EF8606100264D484E4900684E4A3A
:102D6000014091420BD14FF48073B340184206D01A
:102D700005EB86014868000A000200F0E8FF761CB7
:102D8000042EE9DD07F007000022C8B139074CBF67
:102D900001234FF0FF3354F8201059433F0604D469
:102DA0001A463E4B53F8200042438A423C4806DB19
:102DB00003689A4203DA3B4F4FF480523A60016055
:102DC000002039490860C9F80080A061BDE8F1839E
:102DD00029690068090A090251FB10F07047E96887
:102DE0000268090A090251FB12F1704738B55520F3
:102DF00000F07BF8552000F09AF80028FAD02B4814
:102E00002B4902682B4802F07C63B3F1406F0DD16F
:102E10004FF080420A60284B284C294D4B604A6194
:102E20004C62284B0B604D600A611AE002F07C6234
:102E3000B2F1446F17D140F2F1124A6201230B60E4
:102E40004FF490544C6010220A604FF4D0741E4B23
:102E50004B600C604FF001124A6040230B6001246C
:102E60004C60816802E0816841F40041816031BDBD
:102E70000000000014000048789F0820F19D082001
:102E8000DCA00820989E082000800820A89F082029
:102E9000F4A008207000008050000080849F08206B
:102EA000F4AA08200040014800AB0820A8AA082086
:102EB00000C0004800810820000103000000F07FEE
:102EC000010003000000F03F0200010080B501F0A6
:102ED00028FC01F00EFC0028FBD001BDD26860394F
:102EE0008840104000F00100704761280BD2DFF8E5
:102EF000EC2000F07F0111601368DB0941EAC31187
:102F000041F0104111600DE061280BD2DFF8CC20B8
:102F100000F07F011160136823F08053194341F0E2
:102F20000041116061288041C043C00F70470146D5
:102F300001202029DFF8A82007D2126800FA01F149
:102F40001140DFF8A00008407047402907D25368BD
:102F5000A1F1200290401840DFF88C1008E06029B1
:102F600008D29368A1F1400290401840DFF87C102D
:102F70000840704700D8B1E700207047DFF87020A4
:102F800052F8203023F47F43194306E0DFF8602035
:102F900052F820305B0941EA431142F820104FF407
:102FA000807101FA00F04FF08D410A68024202D0B0
:102FB000CA6E0242F9D070474FF4807101FA00F0F6
:102FC0004FF08D4205E04FF4807101FA00F0DFF818
:102FD000242040F420001060704700008C008046E0
:102FE000A400804600FE83D3FF00AA0A00C8A30FF6
:102FF0004400804604008046012200F01F01424B3D
:1030000003E0012200F01F01404B8A40400943F8D1
:1030100020207047012200F01F013D4BF5E7090118
:10302000020006D53B4802F00F02024402F8041CDD
:1030300070473948815470472DE9FC473748DFF81D
:10304000E0800721816040F2014202600021354AA0
:1030500008F118054B0155F82160F50147BF40F212
:103060000B26D6500B25D550491C0329F0DBC1692E
:103070002D4D2E4EDFF8B890072202615A20FFF73F
:10308000C0FF5A20FFF7C6FF00215A20FFF7C7FFF5
:103090005A20FFF7B1FF27482749284A286069606E
:1030A000AA60002708F11800254C50F82710C80125
:1030B00046BF244C0123002359F827A0C6F800A0DE
:1030C0007460524655F8270000905521304601F0B3
:1030D000C5FBC6F800A044F00104746051463046B8
:1030E0000162C0467F1C032FDCDB5520FFF789FF00
:1030F0005520FFF78FFF00215520FFF790FFBDE817
:10310000F647552078E7000000E100E080E100E0AC
:1031100080E200E018ED00E000E400E000C00148BB
:103120000080082000C20148CCAA082000C0004846
:103130000C560000C14D0000C94D0000D14D0000EB
:1031400000210300002103012DE9F04FDFF86C0C92
:10315000DFF86C6CDFF86C4C00F1A4014FF0004814
:103160000A6832604FF0010B4B6873608A68B26086
:10317000CB68F3600A69326100224B697361896927
:10318000B161C068DFF8401C0A6000F00303022B45
:1031900009D156F82230234446F822300BFA02F3C4
:1031A0000D681D430D60800856F822309845B8BF61
:1031B00056F82280521C062AE7D90022DFF8AC0C10
:1031C000DFF8AC3CDFF8ACCCDFF8ACEC404440427C
:1031D00098619146DFF8A40CCCF80000CEF800000E
:1031E00056F82900A0EB080046F8290044F2506A7E
:1031F00056F829408AFB04A5BAF1404065F1FF3139
:10320000C00F40EA410046F829006FF0860056F8EA
:10321000291056F8294091FBF0F08110C0F3400AC4
:1032200000F00105872707FB004046F829000BFA4C
:1032300009F756F82900DFF8484CA8B9DCF8000077
:10324000FF433840CCF800006D1CDEF8000007405A
:10325000CEF80070DFF82C0CDFF82C7C24F8197005
:10326000002420F819401FE0DCF800003843CCF8B7
:103270000000DEF800000743CEF8007056F8290081
:10328000DFF8087C401C404237F81070DFF8000C73
:1032900024F8197056F82940641C644230F8140070
:1032A000DFF8E04B24F819004FEA8A0000EBC10078
:1032B000DFF8E04B281804F80900062904D2BAF117
:1032C000010F98BF022D01D942F0100209F1010946
:1032D000B9F1060F84D91046C10604D59A6842F4A4
:1032E00080029A6003E0996821F480019960C0B27D
:1032F000BDE8F08F2DE9F843DFF8C00ADFF8982B1E
:1033000086B0C16BC06BA0FB0145240D44EA0534B7
:103310002D0DC2E90245BFF34F8FDFF8801BDFF8A8
:10332000800BDFF8803BD0E90045D1E90067A61BA0
:1033300065EB0707CDE90067D0E90089C1E900899D
:10334000DFF8641BDFF828EBD0E90245D1E900671C
:10335000A61B65EB0707CDE90467D0E90245C1E983
:103360000045DFF8481BD0E90467D1E90045341B6C
:1033700067EB0505CDE90245D0E90467C1E90067BF
:10338000D2E90267186841F2C7014843A0FB06452D
:1033900000FB0755240BDDE9006744EA05542D0BBB
:1033A00000230021AF4288468C4609D828BFA64298
:1033B00006D2DEF808604FF0010846F4803603E0DC
:1033C000DEF8086026F48036CEF80860DFF8E06AA0
:1033D000C6F80080DDE90467AF4208D828BFA642DE
:1033E00005D2DEF80860012346F4003603E0DEF87B
:1033F000086026F40036CEF80860DDE90267AF42C7
:1034000009D828BFA64206D2DEF808604FF0010CAA
:1034100046F4802603E0DEF8086026F48026CEF825
:10342000086007B0DFF88C6ADFF88C7AC6F800C055
:103430003B60C2E90245C2E90001BDE8F08300003B
:103440002DE9F14781B000242DED088B90B00025C7
:103450001998199AC0F301700A90C2F303420092BE
:10346000CDE90E44CDE90C44CDE9024400989FED2E
:10347000D8AB062818BF07280AD1DFF84029506CBE
:10348000C20105D5DFF83409026DD317CDE9022357
:10349000BFF34F8F4FF4E470DFF8208ADFF8009A13
:1034A00041430098002888449FEDCB8B9FEDCC9B37
:1034B00000F08580012862D109F190010191DFF8C7
:1034C000002A08920198D8E90023D0E90001821A65
:1034D00061EB0303CDE90623089CD4E90023841A99
:1034E00061EB0305DFF8DC29DFF8DC191368DFF88E
:1034F000DCA930204343C95809910E46A6FB0401BC
:10350000F71706FB051107FB0411000B40EA0150F9
:103510000913444261EB410500F00CFC009E062EAD
:1035200040F0F58000F0F7FBD9E9020100F006FC5D
:1035300044BF0020002109F58472D2E90245D8E990
:103540001223A41A9D4144BF0024002501F0C8F9AC
:1035500000F0D9FB00F0C9FB00F0D5FB00F0AFFB99
:1035600000F0D5FBCDE9040109F58472D9E9020127
:10357000C8E91001D2E90201C8E91201F3E002280A
:1035800005D109F1C0010191DFF8442999E7032829
:1035900005D109F1D8010191DFF8382991E7042814
:1035A00005D1DFF83419CDF8049008918AE7052891
:1035B00005D109F128010191DFF8202981E709F1FE
:1035C00078010191DFF80469DFF814A908960098E2
:1035D00006282DD1D9E90023D8E90401101A63EB9C
:1035E0000101DDE90223801A994144BF0020002136
:1035F000DAE90067D8E90623B61A9F4144BF0026DE
:10360000002701F06DF900F07EFB00F066FB00F092
:103610007AFB00F054FB00F07AFBCDE90601D9E912
:103620000001C8E90401DAE90023C8E9062359E7E3
:103630000098072826D1D9E90A01D8E9042300F027
:103640007DFB44BF00200021DAE90867D8E90623A2
:10365000B61A9F4144BF0026002701F041F900F04F
:1036600052FB00F03AFB00F04EFB00F028FB00F0AC
:103670004EFBCDE90601D9E90A01C8E90401DAE9FE
:103680000823D2E7082891D109F18001D1E910017E
:1036900001F026F900F009FB41EC1A0BD9E91E01F3
:1036A00001F01EF900F001FB00F027FB00F03AFBEF
:1036B00000F0DDFA00F027FB00F0F1FA00F027FB44
:1036C00004460D46D8E9000100F0CDFACDE9060127
:1036D000D6E90C0101F004F900F0E7FA41EC1B0B0C
:1036E000D6E9000101F0FCF800F0DFFA00F005FB7C
:1036F00000F0CDFA32463B4601F01CF900F003FB26
:1037000000F0CDFA01F03EFA241A8D41EAE6072EC8
:103710006AD100F000FBD9E90C0100F00FFB44BFB7
:1037200000200021DFF8B867D8E91223D6E90A455E
:10373000A41A9D4144BF0024002501F0D1F800F0F7
:10374000E2FA00F0D2FA00F0DEFA00F0B8FA00F087
:10375000DEFACDE90401D9E90C01C8E91001D6E986
:103760000A23C8E91223DDE90E230998DFF8706700
:1037700000F081FA644265EB450500F0DBFA009A3F
:10378000062A40F0A38000F067FAD9E9040100F0AE
:10379000D5FA44BF00200021D6E9042300F056FAF0
:1037A00044BF0024002501F09BF800F0ACFA00F0C3
:1037B0008CFA00F0A8FA00F07CFA00F0A8FACDE943
:1037C0000201D9E90401C8E91401D6E90423A3E000
:1037D0000000000000000000000000000000704237
:1037E000000000000000703DDDE90623121BAB4124
:1037F000CDE90623DDE90667D8E90223B2187B414B
:10380000CDE90623C8E90245009A082A49D1C8E94A
:103810000001DFF8D046D4E9120101F061F800F0B0
:1038200044FA41EC1A0BD4E9000101F059F800F018
:103830003CFA00F062FA00F075FA00F018FA00F0B5
:1038400062FA00F02CFA00F062FA04460D46D8E95C
:10385000080100F008FACDE904012646DAE90E0174
:1038600001F03EF800F021FA41EC1B0BDAE902010D
:1038700001F036F800F019FA00F03FFA2F4604463E
:103880000D4600F006FA00F0F2F900F03CFA00F004
:1038900006FA01F077F9301A67EB0101CDE90E0164
:1038A00061E70198D0E90023C8E900230199D8E92C
:1038B0000823D1E90201821A61EB0303CDE9042355
:1038C000089CD4E90223801A9941E7E7072A35D1F9
:1038D00000F0C2F9D9E90E0100F030FA44BF00202F
:1038E0000021D6E90C2300F0B1F944BF00240025E3
:1038F00000F0F6FF00F007FA00F0E7F900F003FA35
:1039000000F0D7F900F003FACDE90201D9E90E0180
:10391000C8E91401D6E90C23C8E91623DDE90C2314
:10392000099800F0A8F96042009A65EB4501062A63
:1039300018BF072A74D1C8E90E0184E0DDE9042329
:10394000121BAB41CDE90423DDE90467D8E90C2360
:10395000B2187B41CDE90423C8E90C45009A082A36
:1039600049D1C8E90801DFF87C0502900146D1E998
:10397000140100F0B5FF00F098F941EC1A0B029821
:10398000D0E9020100F0ACFF00F08FF900F0B5F9CA
:1039900000F0C8F900F06BF900F0B5F900F07FF91C
:1039A00000F0B5F904460D46D8E90A0100F05BF9CC
:1039B000CDE90201DAE9100100F092FF00F075F99B
:1039C00041EC1B0BDAE9040100F08AFF00F06DF90D
:1039D00000F093F900F05BF932463B4600F0AAFF95
:1039E00000F091F900F05BF901F0CCF800F03BF940
:1039F000CDE90C0192E70198D0E90223C8E9082338
:103A00000198D8E90A23D0E90401821A61EB030383
:103A1000CDE90223089CD4E90423801A9941E7E701
:103A2000DDE90223121A8B41CDE90223DDE90245CB
:103A3000D8E90E23A2186B41CDE90223C8E90E0193
:103A40000098082804D100F075F9C8E90A0104E0DB
:103A50000198D0E90423C8E90A23BFF34F8F0A98DD
:103A6000012821D1DDE90601002906D5DDE906019D
:103A7000404261EB4101CDE90601DDE90401002985
:103A800006D5DDE90401404261EB4101CDE90401C5
:103A9000DDE90201002938D5DDE90201404261EB90
:103AA0004101CDE9020130E0022814D1DDE906012F
:103AB000002903D500220023CDE90623DDE9040116
:103AC000002903D500220023CDE90423DDE902010A
:103AD00000291AD515E0032817D1DDE906010029D0
:103AE00003D400220023CDE90623DDE904010029E7
:103AF00003D400220023CDE90423DDE902010029DB
:103B000003D400220023CDE90223BFF34F8FAB4A39
:103B100000F096F80093DDE906452409089800F0C6
:103B200083F8CDE90667DDE904452409019800F032
:103B30007BF8CDE90467DDE902452409009800F02F
:103B400073F8CDE90267BFF34F8F199800F4702026
:103B5000B0F5802F18BFB0F5A02F02D100F070F89B
:103B600005E0106F0890916F0191D2F880300093BA
:103B7000BFF34F8FDDE90645089800F04CF8CDE91A
:103B80000667DDE90445019800F045F8CDE90467D2
:103B9000DDE90245009800F03EF8CDE90267BFF389
:103BA0004F8FC349086818B100240025CDE90645A8
:103BB000C149086818B100240025CDE90445BD4974
:103BC000086818B100240025CDE902450020C8E9A5
:103BD00018005368D80544BFDDE90645C8E9184513
:103BE0005068810507D5D8E91845DDE9040120189A
:103BF0006941C8E918015068410507D5D8E918237B
:103C0000DDE9020110185941C8E9180110B0BDECF6
:103C1000088BBDE8F387A0FB046700FB0577B60AB5
:103C200046EA8756BF12704744EA05742D11A0FB7F
:103C3000046700FB0577360C46EA07463F147047D9
:103C4000D06E0890516F0191D36F7047D8E9164537
:103C5000141B73EB05057047C8E90C45C8E908015A
:103C6000D8E914237047201A65EB010170472246FA
:103C70002B4600F05FBEA0FB0245C11700FB0355B9
:103C800001FB0255240B44EA05542D1370470646E8
:103C90000F4653EC1B2B51EC1B0B00F097BF53EC62
:103CA000102B51EC180B00F091BF53EC192B00F0C6
:103CB0008DBF51EC100B53EC182B00F087BF51EC6B
:103CC000100B53EC1A2B00F081BFB0EE408AF0EEDF
:103CD000608A2046294600F003BEB0EE40AAF0EE0E
:103CE00060AA3046394600F0FBBDB0EE40AAF0EEC7
:103CF00060AA2046294600F0F3BD41EC100B53ECBE
:103D0000102B00F063BF41EC100B01F035B841EC13
:103D10001A0B00F037BFC8E90245C8E90001D8E92D
:103D20001023704704460D4653EC1A2B51EC1A0B26
:103D300000F04CBF51EC1A0B00F024BF821A61EB6B
:103D40000303DDE90201101A73EB010170474849D2
:103D5000CA6802F07062B2F1007F00D1704770B59E
:103D6000614A1368B3F1005F26D3604A146843F8D0
:103D700024001068431C1360BFF34F8F5C4B1C681A
:103D8000044344F08074CC6015680C4CD4F8C460D3
:103D9000B54211D3574C246814F0030F03D140F0FF
:103DA0000070C86070BD04F00304012C04D14FF012
:103DB000004018600021116070BD000000800820E4
:103DC000B0AA08201C92BCFF809F08202DE9F04E6D
:103DD0000020DFF824C1494D494900278146824629
:103DE000834601EB80029369C3F3414201EB8202F7
:103DF00055F82030526A9A4232D04FF4E47645F8B2
:103E0000202046432D4B4CF82070334403F5CC74EE
:103E1000BE462777A762C4F82CE0C3E90077C3E960
:103E20000479C3E906ABC3E90877C3E91079C3E9AC
:103E30001277C3E90A79C3E91477C3E91679C4E9AB
:103E40000077C4E902AB03EBCE060EF1010EC6E922
:103E50002077BEF1200FF6DD930E9201C4E9042312
:103E6000401C0328BDDBBDE8F08E00008FC2F500CA
:103E7000008108207C9F082018A10820FF00001066
:103E8000009E0820109E08200080FFFFCC510000FB
:103E9000D8520000F89D0820D8AA0820789E082053
:103EA000E89A0820C89F0820809E0820889E082045
:103EB000CC9F0820D49F0820D09F082028A108204C
:103EC000B89C0820B49F0820709D0820A09C082062
:103ED000D09C0820E89C0820009D0820189D082000
:103EE000F09B0820689B0820ECA00820E8A0082090
:103EF000F0A00820F4A008205CA90820E8AA082067
:103F000000800820002200F0B9BF0000000000007F
:103F1000012200F01F01CC4B03E0012200F01F0141
:103F2000CA4B8A40400943F820207047012200F024
:103F30001F01C74BF5E70901020006D5C54802F08D
:103F40000F02024402F8041C7047C34881547047B2
:103F500038B5DA20C1498DF800000A78012A2AD143
:103F6000BF480168491C0160006810F0030F02D1CE
:103F7000BC4A0120107040F20221BB4DBB4C2868A6
:103F800000F0AEFF0E21204600F0F3FBB849802080
:103F90000870B84928680A68026049684160B649F3
:103FA0000A6882604968C16040F2011100F096FF22
:103FB0001020606131BDB14C207848B901212170D9
:103FC00001236A4600210E2000F09FFA0020207095
:103FD00031BD00002DE9F84FDFF8A4B2A94DDBF8A0
:103FE0000000A94CDFF8A4A2DFF8A482DFF8A492B5
:103FF00000F07C61B1F1406F88B04AD100F01CFB49
:10400000A548A649C9F800000527CAF80080216024
:104010004FF0904600F09BFAFEF758FFDBF80000E7
:1040200000F07C60B0F1406F04BF022030600420DB
:1040300000F05AFB00F05BF9052000F055FB00F0A2
:1040400056F9072000F050FB00F051F9944802AAFD
:104050003946D83000F0F2FA8046C5F82C8004A822
:10406000A5A1102200F046FF642404AF00F062FB1B
:10407000D7E90223CDE90401994208BF904204D058
:10408000C7E90201641EF1D10FE0A86820F08000AA
:104090000EE000F07C60B0F1446F40F0CE808148CB
:1040A0008149C9F800000727AFE7A86840F0800001
:1040B000A8600298012807D1B878A0F10801B9706A
:1040C000B879A0F10801B97105F184000499DFF80D
:1040D000DCC1016046F6DC037A6875494260BDF9CF
:1040E0001000744AB7F90440C0BA13FB00200860FE
:1040F000E4BA714813FB04220260D9F80030DAF800
:104100000040B7F90220B7F90670FFBAD2BAFF042F
:104110005B00D20452FB134257FB1344674BCCF8AD
:1041200000201C600B6807686549FF1A3F02A41A4B
:1041300097FBF4F00860404282FB0001000A40EA6D
:104140000160604A604C1B181360DBF8000000F04F
:104150007C61B1F1406F1FD140F22230F060A16864
:10416000C80103D5A168C801FCD401E000F0B2F891
:1041700000F0B0F81F2171604D20FFF7CEFE4D20FA
:10418000FFF7D4FE00214D20FFF7D5FE4D20FFF7AD
:10419000BFFE0120306554E000F07C60B0F1446F58
:1041A0004BD103208DF80400012301AA28210E2001
:1041B00000F0ACF908B148F4807800F092F82A21B8
:1041C0000E2000F0A3F908B148F4806800F089F8E7
:1041D0002B210E2000F09AF908B148F40068C5F8C8
:1041E0002C8000233948009001225521204600F000
:1041F00035FB5520FFF791FE5520FFF797FE002174
:104200005520FFF798FE5520FFF782FE602000F052
:10421000AEFE15492E4808605920FFF77EFE592052
:10422000FFF784FE00215920FFF785FE5920FFF794
:104230006FFE0A490120087003E0A86840F40010EE
:10424000A86009B0BDE8F08F00E100E080E100E087
:1042500080E200E018ED00E000E400E0F49D0820BA
:10426000789F0820F19D0820FCAA082000800148C2
:1042700054AA0820385600003056000014AB08201D
:10428000A8AA082000810820A89F0820B09F082025
:10429000831FFFFFAC9F0820C72209006210584906
:1042A00000800820B21E0900C74B37490CAB08201C
:1042B00004AB08207B14AE4708AB082010AB0820E5
:1042C000E0A00820E4A0082000C00048513D000004
:1042D00000810148A168C801FCD5A168C801FCD4CF
:1042E000704704208DF80400012301AA70474FF4A1
:1042F0006830FCF767B80000000000000000000014
:104300000E0C0A08F6E4D2C02DE9F04FB0F1804F50
:1043100028BFC0F10040B0F1005F26BFC0F180406F
:104320004FF0FF3C4FF0010C811500EB5121C915F6
:10433000A0EBC150040254FB04FE4FEA4E0353FBB2
:1043400004F04000002948BF002102D44029C8BF22
:1043500040211B4A02EB81061A4AC117A2FB0085C5
:1043600002FB015528F0FF3925F0000B164937688C
:104370004FEA630AC1FB049BAAEB4B0157FB01F810
:10438000C3EB60097568A9EB64096FF0004149440B
:1043900055FB0188B1681B1A04EB630551FB0588C6
:1043A000F568041BE617A2FB040102FB0611490095
:1043B00055FB018080FA80F00CFB00F0BDE8F08F27
:1043C000C050000055555515AAAAAA2A944870470E
:1043D00010B50446FEF789FD2046FEF7A8FD00282B
:1043E000FAD010BD2DE9F0478A4643F6982481465D
:1043F00090461E4621468B4D2869420605D4084644
:10440000411E0028F8D1002032E0874F786F40F23B
:10441000022100F065FD4946284600F0AAF90AF09D
:104420007F00387032464146781C00F063FD07F18A
:1044300078007866761CBE660022786F07F164010A
:1044400000F041FDFF663E670022786F07F16C01C6
:1044500000F02EFD786F40F2011100F03FFD286959
:10446000410604D42046441E0028F8D1CBE70120A1
:10447000BDE8F0872DE9F047884643F698250746C2
:1044800091469A462946674C2069420605D408465B
:10449000411E0028F8D1002034E0634E706F40F2D6
:1044A000022100F01DFD3946204600F062F948F077
:1044B000800030700AF1010706F178007066B76677
:1044C0000022706F06F1640100F0FDFCF6663767AC
:1044D0000022706F06F16C0100F0EAFC706F40F290
:1044E000011100F0FBFC2069410604D42846451E5A
:1044F0000028F8D1CFE7524606F17901484600F08E
:10450000F9FC0120BDE8F0876CE7B3E72DE9FC4139
:1045100004460D461646984600274346324629462D
:104520002046FFF75FFF43466A4629462046FFF7CD
:10453000A1FF9DF800003178884203D07F1C142F22
:10454000EBD302E00020BDE8F681F8B2FBE738B516
:10455000FFF73CFF354A36491368B0FBF1F4D90741
:1045600044BF2406640E400800F055F801FB120019
:1045700000B1641C2B4D284600F0EEF83020FBF70C
:1045800021FF022028603020FBF71CFF00220021C1
:10459000284600F018F9E2B20021284600F01DF983
:1045A00000220021284600F0F8F8002200212846C9
:1045B00000F0FEF8002301220021284600F01FF938
:1045C000686840F0010068600021686820F002001F
:1045D0006860284600F0D8F800F018F828605167A5
:1045E0000120286000F00DF807210220FEF7CEFC24
:1045F0000220FEF7E1FCBDE8324040F29250FBF7AA
:10460000E1BE4FF480710220FEF7B8BC4FF00040CD
:10461000054A08497047064A0549B0FBF2F270475F
:104620000000290E0080014880A808202C00804648
:1046300000487100008101484B20C9E62DE9F8438C
:104640000D4684B000211160D0E90087CDE90087D4
:1046500003248DF80040EBB26A4620210E20FFF7BC
:10466000C1FE4BF69A10FBF7ADFEEBB202AA202179
:104670000E204FF00108FFF7FDFE08FA05F77F1E38
:10468000002603E008FA06F08743761CAE421ED2ED
:10469000142406F1200902A81DF80630815D994214
:1046A000F0D001230DEB06025FFA89F10E20FFF72F
:1046B00099FE4FF46830FBF785FE02A882190123AA
:1046C0005FFA89F100F00EF8641EE4D1DDE73846A8
:1046D00005B0BDE8F08300F028F821210E20FFF797
:1046E00081FE01BD0E20C5E601B501236A462721E2
:1046F000F4E780B501236A4629210E20FFF7BAFEB0
:104700009DF8000002BD80B500F005F82D210E20B7
:10471000FFF768FE02BD00208DF8000001236A4605
:10472000704780B500F010F8D8E78DF8000001233D
:104730006A467047E0B508236A464121FFF7D2FF79
:10474000DDE9000103B000BD01208DF80000012368
:104750006A462D217047000080B55920FEF7C5FB41
:104760005920FEF7E4FB0028FAD001BD5920FEF7DE
:10477000CBBB426822F4702242600904426801F413
:104780007021114341607047426822F07F424260CD
:10479000426842EA01624260704700EB8100002AF1
:1047A000016B12BF41F001014908490001637047E4
:1047B00000EB8100002A016B14BF41F0020121F0DF
:1047C00002010163704700EB8100016B21F0F001F1
:1047D0000163016B0A4302637047130000D10BE0D1
:1047E00000EB8100016B21F47F410163016B41EA21
:1047F00002210163002070474FF0FF30704700EB4B
:104800008100016B89B20163016B41EA024141EA17
:10481000036101637047000070470000F8B5064669
:104820000D46C06AC04604463046806AC046044011
:1048300013D00026254800EB06173A68AA4207D194
:1048400079680C4204D01046FA689047786884432F
:10485000761C072E01D2002CECD1F1BDF8B51B4D12
:104860002E6F072E144601D30120F2BD00273A0611
:1048700005EB125CDCF800208A4204BFDCF804205F
:10488000A24203D07F1CFAB29642F0D2069A761C5E
:10489000FFB2CCF80010CCF80440CCF80830CCF8CB
:1048A0000C20B74208BF2E671A46214600F02EFBA7
:1048B0000020F2BD11210648B0E713210548ADE7FD
:1048C00015210548AAE755210448A7E7E0A90820D3
:1048D00000800440408004408080044000C00048C4
:1048E00011F0004303D54942404261F10001A1B1FA
:1048F000B1FA81F241409040C2F12002D1414140E1
:1049000002F21D4243EA025CC30A420572F1004210
:1049100053EB41504CEBD121704750B1B0FA80F2CB
:104920009040C4F2D011A1EB025202EBD021194306
:104930004005704770B491EA030F4FF0004540F115
:10494000B7806B40841A71EB030604D26E40001BE3
:10495000B141121973414FF4001C1CEB410F34BFDD
:104960007CEB430683E00C0DA4EB1356362E00F3CC
:104970007C80012E45EAC32341DC43EA525312BF37
:10498000D20292025B08240545EAC12141EA505156
:10499000D2EBC020994125D407D1B0FA80F610FAA5
:1049A00006F162D00020203608E0B1FA81F6B1406D
:1049B000C6F1200220FA02F21143B0404FEAF4742B
:1049C000B4EB465434F001064FEA74040AD8D6F525
:1049D0000016760D04F00044F04061FA06F25040F3
:1049E000F1404840C00A40EA415021F0004128BF50
:1049F0005FEA500550F1000044EBD12135E0DB0ABD
:104A000045EAC121C90AB6F120050EDD42EA02429B
:104A1000120CC5F1200603FA06F6EB4042EA060541
:104A20006D42984161F100010DE062FA06F5F24035
:104A3000554063FA06FC82EA0C02F3405A406D428C
:104A4000904161EB030111F4801F05D1641E6205E2
:104A500002D06D004041494121F48011430875F1B5
:104A6000004350F1000041EB045170BC70471CEB57
:104A7000410F15D223F0004352EA43060BD04FEA10
:104A80004C0CBCEB410F04D80C0D661E342EB7DD68
:104A9000EBE7801A994150EA410608BF0021E4E79C
:104AA00008BF1CEB430F28BF6FF00001DDE70000DB
:104AB000841A71EB030603D2001BB1411219734132
:104AC0004FF4001C1CEB410F34BF7CEB430442E06D
:104AD0000C0DA4EB1356352E4FDC45EAC323DB0A3D
:104AE00045EAC121C912B6F120050DDD63FA05F6CC
:104AF000EB4086EA0305124218BF45F00105C018D5
:104B000051F100010CD213E062FA06F5F240554073
:104B1000F3415A40B340F3405A408018594107D3FB
:104B200049085FEA30005FEA350528BF45F0010516
:104B300001F58011420875F1004250F1000041EB8F
:104B400004514E0016F5001F70BC38BF704700209E
:104B5000090D090570471CEB410F10D252EA4306BC
:104B60000BD0BCEB410F05D80C0DAB43661E342EA9
:104B7000B6DD02E0AB438018594170BC704770BC91
:104B80007047000040F21E4CBCEB115209DDC90217
:104B900082F3070241F0004141EA50500021D04029
:104BA000704720320DDBC902D2F1200341F00041F1
:104BB00041EA5051C002D04001FA03FCD1406044A8
:104BC00070476FEAE17108467047000030B540F267
:104BD000FF7C1CEA11541DBF1CEA13556445654552
:104BE0003FE0641981EA030C6FF35F530CF0004C53
:104BF00043F48013C90241F0004141EA505EC5020E
:104C00001100A5FB020200284FF00000EEFB01207E
:104C10004FF00001E3FB052118BF42F001024018EC
:104C200000214941E3FB0E01A4F580640D0302D28B
:104C300092184041494154F1010470DD450872F178
:104C4000004250F1000051EB0451A1F5801102D453
:104C500041EA0C0130BD40F2FF7E4CEA0E510020CB
:104C600030BD0CEA1355644518BF654581EA030C55
:104C70000CF0004C41D050EA410E1CBF52EA430EEA
:104C800002E06146002030BD24422C441BD15FEA83
:104C9000050EF6D0090302BF01460020AEF1140E46
:104CA000B1FA81F5AEEB050401FA05FE0C35C5F14C
:104CB000200100FA05F5C8404EEA000E6FF35F537D
:104CC00043F480139CE733F00043B3FA83F504BF49
:104CD000B2FA82FE75440B3D641BB5F1200E2FBF66
:104CE00002FA0EF3AB40C5F1200E22FA0EFE38BFD9
:104CF00043EA0E03AA40641C7CE750EA410E14BF4D
:104D000052EA430E6FF000014FF4001515EB430F0C
:104D10008EBF194615EB410F9DE7B4D830BDD4F1D5
:104D20000104B4F120050FDAC4F12005520828BFB0
:104D300042F0010210FA05FE01FA05F57244E2BFE5
:104D4000E0402843E1400FE0352C9ADCC5F1200417
:104D500052EA400220FA05F218BF42F0010231FA8D
:104D600005F0A1400A43002172F1004250F1000019
:104D700051EB0C0130BD000051EC100B00B500F000
:104D800003F841EC100B00BD40F2FF7C0B0D4DD041
:104D9000634566D230B421EA035141F4801103F235
:104DA000FD3C5FEA5C0C01D300184941890041EAEF
:104DB000907180004FF440140023E202D50AB1F54F
:104DC000100107D46D081DD2091B64190018494150
:104DD000491BF7D56D080AD20919641B001849410F
:104DE000491BEFD56D08F7D301E0520817D0C01862
:104DF00061419B1AAC4100184941801AA941F4D481
:104E000052080AD0C01AA1419B186C4100184941B0
:104E1000801AA941E9D45208F4D15B1C6C416108A5
:104E20004FEA330001EB0C5130BC704750EA0103EC
:104E3000FBD030B4B1FA81F311B9B0FA80F41B1988
:104E40000B3BB3F120042FBF00FA04F19940C3F1EA
:104E5000200420FA04F438BF21439840D3F1010321
:104E60009DE7634514BF50EA410CDEE711F5801F52
:104E7000DBD8D943AFF300807047000000B500BF16
:104E8000130096469446103928BFA0E80C50FAD873
:104E90005FEA417C28BF0CC048BF40F8042BC9071B
:104EA00028BF20F8022B48BF00F8012B00BD0000EE
:104EB00019B10B6883604968C1601AB111688161DA
:104EC0005268C261704719B10B680360496841605C
:104ED0001AB111680161526842617047034A00E0EB
:104EE000034A114001627047000000000101050003
:104EF00002020A014AB1000011F8013B521E00F8FB
:104F0000013B1CBF11F8013BF8E77047042A016020
:104F10002AD8DFE802F0030911192100416821F0C5
:104F2000E061416041681EE0416821F0E06141605C
:104F3000416841F0807116E0416821F0E061416014
:104F4000416841F000710EE0416821F0E06141608C
:104F5000416841F0407106E0416821F0E061416044
:104F6000416841F080614160704704460CE010B533
:104F7000FFF7FBFF00F002F8046210BD012104F00E
:104F80001F0401FA04F4704701460020C904090E09
:104F9000094A01D110467047012902D102F14000AF
:104FA0007047022901D105487047032908BF01480D
:104FB0007047000000C0004800800440808004402A
:104FC000A949012008607047A7490220086070477E
:104FD000A54904200860704710B5A348A34A416959
:104FE000CB0703D50024D467012303608C0704D5C5
:104FF0000023C2F8443202240460490704D5002388
:10500000C2F80C340421016010BD2DE9F84F984E10
:105010009848D6F818A0D6F810B00168C90640F133
:10502000E980102282601C20934B94491A6802F098
:105030000702424392488D18417801F00F0101297F
:1050400004D090490A6802F580320A608E4FDFF87A
:105050003C823968D0F8062012BA120A120252FBBA
:1050600011F129603968D0F80A2012BA120A120226
:1050700052FB11F16960D8F80410CA0339681DD4D5
:10508000D0F80E2012BA120A120252FB11F1A960D6
:105090003968D0F8122012BA120A120252FB11F12A
:1050A000E9603968D0F8162012BA120A120252FBCF
:1050B00011F129613968D0F81A201CE0D0F81620C7
:1050C00012BA120A120252FB11F1A9603968D0F823
:1050D0001A2012BA120A120252FB11F1E960396861
:1050E000D0F80E2012BA120A120252FB11F12961F5
:1050F0003968D0F8122012BA120A120252FB11F1CA
:1051000069610024D0F8020000BA000A4FEA0029C1
:105110005F4860490068604A0140914208D14FF4FD
:105120008073A34018421CBF55F82400FEF70FFE01
:10513000641C072CECDBD8F80440584904F0070045
:105140000022C8B123074CBF4FF0010E4FF0FF3EC5
:1051500055F82030240603FB0EF303D451F8200049
:10516000724642439A4206DBF068824203DA4C4AB6
:105170004FF480501060F3600AF1010A3E48036862
:10518000C3F30A03B3F5007F03D17068B060002356
:105190007360BAF1080F7069424C38D20BEB00070C
:1051A000BAF1040F276022D14FF08060F26959FBF9
:1051B00010F04FF0F84152FB11023B4801785200C9
:1051C00000291CBF3078002803BF4A4601213170F6
:1051D00091463648C6F81C900260D8F804100805BD
:1051E0000ED500217160B16021604FF0030A776134
:1051F0002068A861C6F810B0C6F818A0BDE8F18F05
:1052000098F8D80000F0FD0000F052F8EFE73B6896
:1052100059FB13F73B462760002B48BF5B4272687F
:10522000934238BF1346736040F6297389699A45E3
:1052300003D3814201DAB94203DA41F2E7018A4538
:10524000D5D3381AC0EBC001C91948BF49428346BB
:10525000B0684008884238BF4FF0000B032000F0D0
:1052600027F84FF0000AC2E708C0014828A108202B
:10527000F8A0082010800148789F0820989E0820F8
:1052800074AA0820F8AA0820A89F082000800820F7
:10529000F4A008207000008050000080849F082047
:1052A0000040014800AB0820F29D0820DCA0082047
:1052B0008DF8000001236A4620210E20FFF724B953
:1052C0008221F67FFFFFFF7F8221F67F8E87D87FC6
:1052D000B436A77F8F36627FC491097FFC559D7ECF
:1052E000EA931D7E405F8A7DB2CEE37CEEFB297C93
:1052F0009E035D7B5B057D7AB1238A791484847873
:10530000DB4E6C773DAF417645D30475D1EBB57379
:10531000852C5572C6CBE270B2025F6F140DCA6D58
:105320006029246CA4986D6A819EA6682081CF664E
:105330002689E864AC01F2623038EC608A7CD75E82
:10534000E020B45C9A79825A54DD4258D2A4F555D3
:10535000F02A9B5394CC3351A5E8BF4EF4DF3F4C69
:105360003315B449E7EC1C4750CD7A44651ECE4155
:10537000B849173F70BA563C32DD8C391420BA3622
:1053800087F2DE334DC5FB30620A112EEB341F2B42
:1053900028B926285E0C2825C5A423227BF9191FCD
:1053A0006A820B1C3CB8F8184514E2156F10C8123D
:1053B0002B27AB0F5ED38B0C49906A097CD947062B
:1053C000BF2A24030000000041D5DBFCC17E857D9F
:1053D0004C7C147BDF79AC787B774C762075F67348
:1053E000CD72A67182705F6F3F6E206D046CE96AAA
:1053F000D069B868A46790667E656E646063536226
:1054000048613F60385F325E2D5D2A5C295B2A5A15
:105410002B592F5834573A5642554B5456536152D4
:105420006F517E508E4F9F4EB24DC64CDB4BF24AB1
:10543000094A22493C48574773469145AF44CF43F8
:10544000F0421242354159407E3FA43ECB3DF33CF1
:105450001C3C463B713A9C39C838F63724375336E2
:105460008235B334E433163349327C31B130E52F21
:105470001A2F502E872DBE2CF62B2E2B662A9F29F5
:10548000D92813284D278726C225FD2438247423C4
:10549000AF22EB21272162209E1FDA1E151E511D0F
:1054A0008B1CC61B001B3A1A7319AB18E21718178E
:1054B0004D168115B414E413131340126A119110A0
:1054C000B50FD50EF00D060D150C1C0B190A0909A8
:1054D000E707AD064A059903D7FFAEFF85FF5DFFDD
:1054E00035FF0DFFE5FEBEFE97FE70FE4AFE24FE70
:1054F000FEFDD9FDB4FD8FFD6AFD46FD22FDFFFCDA
:10550000DBFCB8FC95FC73FC51FC2FFC0EFCEDFBA6
:10551000CCFBABFB8BFB6BFB4BFB2CFB0DFBEEFAD5
:10552000D0FAB2FA94FA77FA5AFA3DFA21FA05FA61
:10553000E9F9CEF9B3F998F97EF964F94AF931F944
:1055400018F9FFF8E7F8CFF8B8F8A1F88AF874F876
:105550005EF848F833F81EF80AF8F6F7E3F7D0F7E4
:10556000BDF7ABF799F788F777F767F757F748F77D
:1055700039F72AF71CF70FF702F7F6F6EAF6DFF627
:10558000D5F6CAF6C1F6B8F6B1F6A9F6A2F69CF6BB
:1055900097F693F68FF68CF68AF689F689F689F6F1
:1055A0008BF68EF691F696F69CF6A3F6ABF6B5F66C
:1055B000C0F6CDF6DBF6EBF6FDF610F726F73DF775
:1055C00058F774F794F7B7F7DCF706F835F867F88B
:1055D000A0F8DEF824F973F9CDF935FAAFFA43FBF8
:1055E00000FC0BFD2DE9F8430546164885420CBF2B
:1055F00000264FF48076AC69686904400BD04FF008
:105600000008114FB81908F1010950F838100C4280
:1056100003D1C8460DE0BDE8F183BA1902EBC80218
:10562000284653689847B81950F838008443C8464C
:10563000F1D0B8F1200FE5D3EDE70248D2E70348F7
:10564000D0E7000000C0024080A6082000400148CA
:1056500030B4002512E050F8042BD30744BF4A446D
:10566000521E091F042942F8045BFAD213468C0724
:1056700044BF15809B1CC90748BF1D7050F8041B10
:105680000029E8D130BC704710B50749794418317A
:10569000064C7C44163404E00A68081D114488470F
:1056A0000146A142F8D110BD2C00000050000000BE
:1056B0004EF68851CEF20001086840F47000086090
:1056C000BFF34F8FBFF36F8F4FF00170E1EE100A01
:1056D000704700007DFFFFFF100A000000800820D7
:1056E000F009000028A1082000000000ABD5FFFF52
:1056F00084010000F8000000108A082003480449D3
:10570000C009C001086001207047000000000000CF
:1057100008ED00E000F002B8FEE700000548014691
:1057200003B4684680F30988AFF30080FFF7C0FF39
:1057300000F002F8A5EDF5FEFFF7E0FF002801D02C
:10574000FFF7A2FFAFF300800020AFF30080FDF76A
:10575000F7F900F000F800F001B8000007463846FD
:1057600000F002F8FBE70000202109032631182091
:10577000ABBEF9E7A31EDF41B08FDFC46F3B20143F
:105780008F7B0DC8346ED1120F272E4498157248A6
:1057900089EE4304000000E0000000E001B75F0C68
:1057A0007F9E82E701B75F0C6C07D5819A8B093F1A
:1057B00007DC7E315FCF229D07DC7E31365CC48002
:1057C000E08B7B3F1F22C817E37D45D11F22C817FE
:1057D000282CBB839A0B033D1F22C817FDFB78D0F2
:1057E0001F22C817BABE24827016243E9EC7060127
:1057F000000000006238F9FE51AAFFE07F811D0F12
:10580000C1A7DC4754F725E8169F02F0000002000C
:1058100000000400000008008E7C0080DC90B200D4
:1058200012DD547F1D98100DA23EB88010F98D0D29
:1058300054AA08201D00000074AA08201D000000C2
:1058400098D9A40733D9353C9114CF1C05538A65E8
:1058500016E14CF5E3828CDB9BDEF4BE177AA1A740
:10586000AFF88A97C5FF6C8DA7FC5187B2CD97839F
:10587000E8F01381810081008100810081008100B6
:105880008100810081008100810081008100810010
:105890008100810081008100810081008100810000
:1058A00081008100810081008100810081008100F0
:1058B00081008100810081008100810081008100E0
:1058C00081008100810081008100ED00FBFF050067
:1058D0000010FF0061810081008100F0000008F9E4
:1058E000000DFF000010BFF35F8F401EFBD170471B
:1058F00000000000000000000000000000000000A8
:105900002DE9F04FADF5357D1CAFBE4B1B782C2B30
:1059100002F2038501A252F823F000BFE159000111
:10592000D15900011B830001315A0001475A00017F
:10593000815A0001BB5A0001CB5A00010F5B0001E4
:10594000555C0001FB5E0001695F00012B620001F4
:105950009B62000169650001C9670001476A000197
:10596000C36A0001636A0001396B00014F6D0001D9
:10597000D16E0001176F0001517100015D730001CC
:10598000A373000171740001B5750001D5760001A3
:10599000F577000101790001BD790001B17A0001BC
:1059A000197C0001677D0001597E00019F7E000186
:1059B000B57F0001038100017B810001C7810001E7
:1059C000658200018B820001A38200011B8300011C
:1059D0008D4865F009F98B4B02221A7002F0A6BCC3
:1059E00065F050FC0346002B02F0998487498848F3
:1059F00062F0BAFF8749884862F0E2FF8749884829
:105A000062F070FF874864F0D5FB7E4B0022C3F83C
:105A100070227C4B03221A70834B844A92E8030065
:105A200018600433198002330A0C1A7002F077BC34
:105A300065F01EFA0346072B42F07384714B042273
:105A40001A7002F06EBC7A4B04221A70784B002256
:105A50005A70774B774A5A60754BFF221A72744B13
:105A6000FF225A72724B07225A81714B6E4ADA60DA
:105A70006F4858F06DFB634B2C221A7002F056BC35
:105A80006B4B04221A706A4B02225A70684B002238
:105A90005A60674BFF221A72654BFF225A72644BA1
:105AA00007225A81624B604ADA60614858F050FB25
:105AB000544B01221A7002F039BC5F4865F094F82B
:105AC000504B01221A7002F031BC65F01BFB4D4BAC
:105AD0009B7807F5F47207F5EC7118465AF0F0FE62
